:100000000C9466010C948E010C948E010C948E015C
:100010000C948E010C948E010C948E010C948E0124
:100020000C948E010C948E010C94360B0C94A50B41
:100030000C948E010C948E010C948E010C948E0104
:100040000C948E010C948E010C948E010C948E01F4
:100050000C948E010C948E010C948E010C94D70D8F
:100060000C948E010C948E010C948E010C948E01D4
:100070000C948E010C948E010C948E010C948E01C4
:100080000C948E010C948E010C948E010C948E01B4
:100090000C948E010C948E010C948E010C948E01A4
:1000A0000C948E010C948E010C948E016382536328
:1000B00000010800060400010000000024002700E1
:1000C0002A002D00300000000000250028002B0031
:1000D0002E00310004040404040304050202020299
:1000E00004030202020206060606060604040202D1
:1000F00002040404080201104080401020408040A7
:10010000800802040180402010020110801020406D
:1001100040200000000200090F0000030401000C51
:1001200000000000000000000000000000000000CF
:1001300000080B0002020200000904000001020294
:100140000000052400100105240101010424020619
:100150000524060001070581031000400904010081
:10016000020A0000000705020240000007058302A2
:100170004000000403090412010002EF02014041A3
:1001800023378000010102030141726475696E6FBB
:10019000204C4C430041726475696E6F204D696359
:1001A000726F004500008200004000204854545007
:1001B0002F312E3020353033204D79205365727623
:1001C000696365200D0A436F6E74656E742D5479F2
:1001D00070653A20746578742F68746D6C0D0A52DE
:1001E000657472792D41667465723A203630300D2F
:1001F0000A0D0A3C68746D6C3E3C686561643E3C67
:100200007469746C653E53657276696365205465E4
:100210006D706F726172696C7920556E617661697B
:100220006C61626C653C2F7469746C653E3C2F6830
:100230006561643E3C626F64793E3C68333E54685D
:1002400069732073657276696365206973206375CD
:100250007272656E746C7920756E617661696C611D
:10026000626C653C2F68333E3C703E3C656D3E548D
:100270006865206D61696E207365727665722069AC
:10028000732063757272656E746C79206F66662D6B
:100290006C696E652E3C6272202F3E506C656173F6
:1002A000652074727920616761696E206C61746584
:1002B000722E3C2F656D3E3C2F703E3C2F626F646A
:1002C000793E3C2F68746D6C3E00981211241FBE5D
:1002D000CFEFDAE0DEBFCDBF11E0A0E0B1E0EEE0AD
:1002E000F6E202C005900D92A63AB107D9F724E0D4
:1002F000A6EAB1E001C01D92A436B207E1F711E011
:10030000C6E6D1E004C02197FE010E94D812C5368E
:10031000D107C9F70E94210E0C9405130C9400001C
:10032000CF93DF93209110042223C1F0FC012081A0
:100330002223A1F0C0E1D4E0ACE0B4E09C012C5F4A
:100340003F4F899141919D918427892339F4E21788
:10035000F307B9F781E0DF91CF91089580E0FBCFFB
:10036000FC0180910B04882311F13FB7F89482E0DF
:100370008093E9002091F200822F90E01816190670
:1003800014F481E090E0882339F0289A44E6409301
:100390000A044091F1004083222339F02091F200B9
:1003A000211103C02BE62093E8003FBF08958FEF93
:1003B0009FEF08952FB7F89483E08093E900909120
:1003C000E800892F807295FF04C09091F20080E4CC
:1003D000891B2FBF08958091020481110DC082E016
:1003E0008093FE0384E08093FF0310920104109237
:1003F000000481E0809302048EEF93E00895409121
:10040000CC015091CD012091CA013091CB0142170E
:100410005307B4F49091E8009570E1F39091E800EF
:1004200092FD19C08093F1008091CC019091CD0193
:1004300001968F739927892B19F48EEF8093E8002A
:100440008091CC019091CD0101969093CD01809344
:10045000CC0181E0089580E00895EF92FF920F9320
:100460001F93CF93DF93F82E192FE62E042F81E0F0
:10047000860F880F0E94FF0183E00E94FF01CF2DAD
:10048000D12FEC0EFD2EF11CCE15DF05B9F007FFC4
:1004900013C0FE0184910E94FF01182F80E00E948A
:1004A000FF01812321968111EFCFDF91CF911F9121
:1004B0000F91FF90EF9008958881EDCF81E0F5CF07
:1004C000DF92EF92FF920F931F93CF93DF93D82E7B
:1004D0008A01EB017B01E40EF51ECE15DF0559F014
:1004E000D7FE12C0FE0184910E94FF012196811166
:1004F000F4CF0FEF1FEFC801DF91CF911F910F9144
:10050000FF90EF90DF9008958881EECF0F931F93B7
:10051000CF93DF931F92CDB7DEB782E0898342E4A9
:1005200050E061E371E080E80E9460020E94EB010C
:10053000DC0112960D911C910115110589F0D8016D
:10054000ED91FC910280F381E02DBE016F5F7F4F42
:10055000C801099597FD04C0F80100851185ECCF0D
:1005600089810F90DF91CF911F910F910895615074
:1005700030F02091F100FC0120830196F8CF289AF9
:1005800084E680930A040895CF93DF931F92CDB73A
:10059000DEB76983DC01ED91FC910280F381E02DEF
:1005A00041E050E0BE016F5F7F4F09950F90DF91F2
:1005B000CF91089583E08093E9008091F200882331
:1005C00019F08AE38093E80008950E94DA0190E030
:1005D0000895CF93DF931F92CDB7DEB7FC018485DA
:1005E000958597FD08C02FEF3FEF358724870F9043
:1005F000DF91CF910895CE0101960E94B00101973D
:1006000019F4898190E0F3CF8FEF9FEFF0CF0F9334
:100610001F93CF93DF931F92CDB7DEB78C01FC0100
:100620008485958597FF0BC0CE0101960E94B0018D
:10063000019771F4898190E0F80195878487F8012A
:10064000848595850F90DF91CF911F910F9108952B
:100650008FEF9FEFF1CFFC018485958597FD0BC04F
:100660009FB7F89482E08093E9008091F2009FBFE9
:1006700090E0019608959FB7F89482E08093E90096
:100680008091F2009FBF90E00895282F30E0F9019B
:10069000EE5EFE4F9491F901ED50FF4F84912C5284
:1006A0003F4FF9012491222309F430C09923E9F046
:1006B00091509F30D0F4E92FF0E0EF59FC4F0C94AB
:1006C000D8128F039303700387038B03750375039D
:1006D000750396039C03A003A403AA037503AE034A
:1006E000909180009F7790938000E22FF0E0EE0FD2
:1006F000FF1FEA53FF4FA591B4919FB7F894EC9177
:10070000611132C080958E238C939FBF0895909184
:1007100080009F7DE8CF90918000977FE4CF94B5D3
:100720009F7794BDE2CF94B59F7DFBCF90919000D1
:100730009F7790939000D9CF909190009F7DF9CFB3
:1007400090919000977FF5CF9091C0009F77909304
:10075000C000CBCF9091C0009F7DF9CF9091C20097
:10076000977F9093C200C1CF8E2BCECFCF93DF93D4
:1007700090E0FC01ED50FF4F24918C529F4FFC0103
:1007800084918823D1F090E0880F991FFC01E854F0
:10079000FF4FA591B491FC01EA53FF4FC591D4914D
:1007A00061110EC09FB7F8948C91E22FE0958E23D3
:1007B0008C932881E223E8839FBFDF91CF91089536
:1007C0008FB7F894EC91E22BEC938FBFF6CF3FB745
:1007D000F8948091C6019091C701A091C801B09191
:1007E000C90126B5A89B05C02F3F19F00196A11D90
:1007F000B11D3FBFBA2FA92F982F8827BC01CD016B
:10080000620F711D811D911D42E0660F771F881FC9
:10081000991F4A95D1F708958F929F92AF92BF92F8
:10082000CF92DF92EF92FF924B015C010E94E703AF
:100830006B017C010E94E7036C197D098E099F09F9
:10084000683E734081059105A8F328EEC20E23E0AF
:10085000D21EE11CF11C8A9489288A288B2829F051
:10086000812C912C54018394E5CFFF90EF90DF9081
:10087000CF90BF90AF909F908F9008958F929F924E
:10088000AF92BF92CF92DF92EF92FF920F931F939E
:10089000CF93DF936C017B018A0180910B01882348
:1008A00009F45CC080910B04882309F457C080913F
:1008B000D00180FF05C08091E00082608093E0005D
:1008C000E801B12C8AEFA82E93E0892E2AE3922E1C
:1008D000209711F4BB20D9F10E94DA0181110AC0DE
:1008E000AA94AA20D9F161E070E080E090E00E9433
:1008F0000C04EECF8C171D0611F00CF08C2F9FB757
:10090000F8948092E9002091E80025FD02C09FBF85
:10091000DFCF282F30E0C21BD30BF701815020F02E
:1009200041914093F100FACFE20EF31EBB2021F07B
:100930009092E800B12CEBCF8091E80085FDE7CFE5
:100940009092E800BB24B394209709F3F3CF5D9A0B
:1009500084E68093CF01101611063CF081E090E010
:10096000F6019383828310E000E0C801DF91CF910C
:100970001F910F91FF90EF90DF90CF90BF90AF90BD
:100980009F908F9008952FB7F8946091C201709155
:10099000C3018091C4019091C5012FBF089580913A
:1009A0001A0290911B029827892798274497209133
:1009B000380230E044E0359527954A95E1F7220F5B
:1009C000331F220F331F821B930B97FF02C090E04F
:1009D00080E0089520912E0230912C0230932E0257
:1009E00020932C0220912F0230912D0230932F0260
:1009F00020932D02EAE0F2E021A5820F911D25A5AA
:100A000085A7662381F021A7892F9927319722E0B6
:100A1000E630F20789F710923C0210923D0280E521
:100A200080933802089511A6EFCF0F931F93CF93B1
:100A3000DF9370E0665F7D4F8A01075F1F4F2130B3
:100A400029F0223031F48A010250110930E020E00F
:100A500003C000E010E09801EB01FA01E230F1057B
:100A600058F0A991B991BA27AB27BA270A0F1B1FD3
:100A7000211D311D3297F2CFFA01EE7F6E0F7F1FDD
:100A80004E175F0769F0FB01408150E070E060E0C5
:100A9000762F652F542F4427040F151F261F371F4D
:100AA000A90166277727411551056105710519F0E0
:100AB00022273327F1CF00951095E82FF0E0E65F6D
:100AC000FD4F10830183DF91CF911F910F91089506
:100AD000EAE0F2E0108E118E80E4848B158A868B1A
:100AE00020E044E150E06EE088E10C9415058EBDF5
:100AF0000DB407FEFDCF089561E08091D2010E9400
:100B0000450378940895F89460E08091D2010C94A4
:100B100045030F931F93CF93DF93EC018B010E944A
:100B200083052097B9F08AE30E9477051EBCF8017F
:100B3000CE01019739F00DB407FEFDCF2EB51EBCD6
:100B40002193F7CF2197C00FD11F0DB407FEFDCF22
:100B50008EB58883DF91CF911F910F910C947C0506
:100B60001F93CF93DF93182FC62FD42F0E94830596
:100B70008C2F8F71812B0E9477058D2F0E94770516
:100B8000DF91CF911F910C947C05CF93C82FC07635
:100B90008091BD018C1799F043E06FE180EA0E94DB
:100BA000B005C093BD014C2F50E085E055954795A9
:100BB0008A95E1F76FE180E8CF910C94B005CF9171
:100BC0000895CF93DF93C82FD62F0E94C5054D2FD0
:100BD0006C2F80E4DF91CF910C94B005CF93DF931D
:100BE000C82FD72F0E94E1056D2F81E08C0FDF9178
:100BF000CF910C94E105CF93C82F0E94C5050E94A8
:100C000083058C2F8F710E94770580E00E94770505
:100C1000C7FF03C080E00E947705CEB50E947C0527
:100C20008C2FCF91089561E184ED0E94E10561E090
:100C300082ED0E94E1058AEE0E94FB0580FDFBCF5C
:100C400060E082ED0E94E10589ED0E94FB0590E0E5
:100C500008950F931F93CF93DF9300D000D000D05F
:100C6000CDB7DEB78091C001882379F06091BE01D5
:100C70007091BF016115710509F053C06FEF7BE002
:100C80008CE00E94EE051092C00189E30E94FB05F2
:100C900010E000E08823C9F16091BE017091BF01AE
:100CA00080E00E94EE05BE016F5F7F4F86E090E01E
:100CB0000E94890589819A819093BF018093BE012A
:100CC0008D819E818C010078112787FF12C08B8156
:100CD0009C8104970091D3011091D4010150110916
:100CE0008017910708F48C016AE072E0C8010E9445
:100CF0008905F801E65FFD4F108281E08093C00115
:100D000040E46EE180E80E94B005C80126960FB667
:100D1000F894DEBF0FBECDBFDF91CF911F910F9131
:100D2000089561507109ACCFCF93DF93EC0140E897
:100D30006FE180E80E94B00540E86FE180EA0E9420
:100D4000B0054AE06CE180EA0E94B00560E07CE01A
:100D500082E00E94EE05BE01745F86E00E94EE050F
:100D600040E060E08AE70E94B0050E94830520977A
:100D7000B1F08AE70E94770580910A028EBDEBE010
:100D8000F2E0C65FDD4FEC17FD0731F081910DB445
:100D900007FEFDCF8EBDF7CF0DB407FEFDCF0E943D
:100DA0007C0548E06FE180E80E94B005D0E0C0E03B
:100DB0008CE10E94FB058A7029F42196C83E83E0ED
:100DC000D807B1F78CE10E94FB0581FD03C0C83E46
:100DD000D34039F448E06FE180EADF91CF910C9481
:100DE000B005DF91CF9108950F931F93CF93DF93B9
:100DF0008C018896CAE0D2E0988B898B0E946805A6
:100E00001AAA1BAAA801445E5F4F22E06AE182E3AE
:100E10000E941505C801C696DF91CF911F910F91D1
:100E20000C949406CF93DF93EB01682F84ED0E941E
:100E3000E105BE0186ED0E94EE058AEE0E94FB05EB
:100E400080FDFBCFDF91CF910895CF92DF92EF929B
:100E5000FF920F931F938634910568F120912D0224
:100E6000233449F5C0903802D0903902E0903A021C
:100E7000F0903B020091AD011091AE012091AF01C5
:100E80003091B001C016D106E206F306A1F4E4E207
:100E9000F3E0865F9D4F9F012E5F3F4F4181508160
:100EA000553319F45281651771F0F901E40FF11D02
:100EB000E817F90780F380E01F910F91FF90EF9002
:100EC000DF90CF90089581E0F7CFE091A601F091F7
:100ED000A7019F012F5F3F4F3093A7012093A601E9
:100EE00080830895FF920F931F93CF93DF93162F64
:100EF000F42E052F0E946507812F0E946507CF2DD4
:100F0000D02F115020F089910E946507FACFDF9110
:100F1000CF911F910F91FF900895FC010190002047
:100F2000E9F73197AF01481B590BBC0184E194E00C
:100F30000C943E04CF93DF930E948D07EC0183E570
:100F400091E00E948D078C0F9D1FDF91CF91089536
:100F50008F929F92AF92BF92CF92DF92EF92FF92C9
:100F60001F93CF93DF93CDB7DEB7A1970FB6F89459
:100F7000DEBF0FBECDBFD62E172F0E948D07ED2CE2
:100F8000F12E10E08AE0882E912CA12CB12CF701D3
:100F900021917F0130E050E040E019A26E01F1E2C2
:100FA000CF0ED11CCA01B901A50194010E94B6124D
:100FB000605DF60162936F01211531054105510510
:100FC00089F7309719F0CF010E948D07133029F06F
:100FD0006EE284E194E00E94C4021F5F1430B9F60F
:100FE00083E591E00E948D07A1960FB6F894DEBFCD
:100FF0000FBECDBFDF91CF911F91FF90EF90DF909B
:10100000CF90BF90AF909F908F900895DC0196E0B5
:10101000FB0101900D929A95E1F70895CF93DF932C
:10102000EB0144E050E0BC0186E292E00E94F8123D
:10103000892B49F460E272E0CE010E94060881E04B
:10104000DF91CF91089580E0FBCFBC018AE092E070
:101050000E9406086DED71E080E192E00C940608B4
:10106000DC0194E0FB0101900D929A95E1F708955F
:101070000F931F93CF938C018DE491E00E9425087C
:10108000EAE0F2E088E08487C6E0C58748E050E007
:1010900060EB70E088E192E00E94AD12EAE2F2E0DB
:1010A000DF011D92CA95E9F76DED71E080E292E0F3
:1010B0000E940608B80180E392E00E94300860E1D7
:1010C00074E086E292E00E9430088AE290E0CF91DC
:1010D0001F910F910C94940680E192E00E942508E4
:1010E00064E272E088E292E00E94300860E174E01D
:1010F00084E292E00E9430080C946805262F20615B
:1011000020933902643021F0009711F481E090E0DF
:1011100061E00E94EA0410921A0288E280931B02A6
:101120000E946C0884E080933A0210923B0222E015
:101130004CE150E06AE182E30E94150586E390E00D
:101140000C949406CF93DF93EB010E942508BE0117
:1011500088E292E00E94300860E174E084E292E06C
:10116000DF91CF910C943008EF92FF920F931F9371
:10117000CF93DF938C01EAE0F2E086E191E0DF01BA
:101180009C011D9221503040E1F78091DC01CDE4BB
:10119000D1E0833011F4C8EAD1E0CE010E94900181
:1011A000BE01882309F4ACC087EE91E00E94A2083A
:1011B0008881807F803E91F088819981AA81BB815E
:1011C0008F3F9F4FAF4FBF4F49F044E050E0BE010B
:1011D00083EE91E00E94F812892B31F46DE471E006
:1011E0008AE092E00E94060888E08093160210923E
:1011F000170249E050E063EA71E088E192E00E9462
:10120000AD1210921A0281E18093210210922E02F7
:1012100083E480932F0210922C0284E480932D02A9
:101220001092300210923202109233026DE471E09B
:101230008AE092E00E94060881E080933402809365
:10124000350286E0809336028091AD019091AE0127
:10125000A091AF01B091B001809338029093390210
:10126000A0933A02B0933B02C091DC01C33031F449
:1012700060E174E080E492E00E9430086DED71E07E
:1012800080E592E00E94060880E293E09093A70137
:101290008093A601ECEAF0E084910E946507EDEAF4
:1012A000F0E084910E946507EEEAF0E084910E94EC
:1012B0006507EFEAF0E084910E94650785E30E94EC
:1012C000650781E00E94650783E0C11101C081E0EC
:1012D0000E9465078DE30E94650787E00E9465070D
:1012E00081E00E9465078DEDE82E81E0F82EC7E0D1
:1012F000C15049F0D7018D917D010E946507F8CF5B
:101300008DEE91E053CF80910C01882371F06CE059
:1013100071E0FB0101900020E9F7BF016D507140C1
:101320004CE051E08CE00E9472070115110559F064
:10133000A80164E082E30E94720748EA51E064E099
:1013400086E30E94720787E30E94650783E00E949C
:10135000650781E00E94650783E00E94650786E0DB
:101360000E9465078FEF0E946507C091A601D0918A
:10137000A701C453D240CE014C9690931A02809399
:101380001B020E946805CE0108969093300280935C
:101390003102AE01405F5F4F21E06AE188E20E94C6
:1013A0001505CE018A96DF91CF911F910F91FF9085
:1013B000EF900C949406CF92DF92EF92FF920F93EE
:1013C0001F93CF93DF9300D000D0CDB7DEB78C0151
:1013D0008091DC018230C9F098F4882309F49CC024
:1013E000813009F4B8C00F900F900F900F90DF91EB
:1013F000CF911F910F91FF90EF90DF90CF900895C4
:10140000833009F454C0843071F765E0C8010E944C
:101410002507882309F4C7C08091AC01811108C059
:1014200088E30E94FB05682F6E7F88E30E94E10538
:1014300064E472E080E194E00E943008E4E2F3E0CA
:10144000065F1D4F7F0122E0E20EF11CD1808081FA
:10145000863009F4FAC008F0BDC0813009F4EBC051
:10146000833009F4EEC0F701ED0DF11DE017F1072F
:1014700048F30E94C3046093B5017093B601809352
:10148000B7019093B80180910002882361F0109217
:1014900005021092040281E08093060260E072E08F
:1014A000CB010E94300883E08093DC019CCFC09088
:1014B000B901D090BA01E090BB01F090BC012FEFD0
:1014C000C216D206E206F20609F48DCF0E94C304CA
:1014D0000091B5011091B6012091B7013091B8018A
:1014E000601B710B820B930B6C157D058E059F05A0
:1014F00008F479CF80E194E00E94B40884E08093FE
:10150000DC010E94C3046093B1017093B201809327
:10151000B3019093B40167CF0E94C3046093AD01FF
:101520007093AE018093AF019093B001E0E1F4E0DD
:1015300084E0DF011D928A95E9F790E080E00E9447
:10154000B40888E30E94FB05682F616088E30E946D
:10155000E10581E0D4CF62E0C8010E94250788231D
:1015600011F164E472E0CE0101960E943008E4E2D9
:10157000F3E0065F1D4FBF016E5F7F4F8181908159
:10158000963351F488EA91E00E943008CE0101962A
:101590000E94B40882E0B3CFFB01E80FF11DE01711
:1015A000F10748F3F3CF0E94C3040091B1011091F9
:1015B000B2012091B3013091B401601B710B820B19
:1015C000930B613177428105910508F40CCF10929D
:1015D000DC0109CF8A3331F08F3F09F44ACF8333DE
:1015E00009F041CF1092B9011092BA011092BB01DB
:1015F0001092BC01F701C701049620E030E0A90178
:101600006191542F432F322F2227260F311D411D68
:10161000511D8E179F07A1F72F3F8FEF38074807FF
:101620005807B9F42093B9013093BA014093BB0134
:101630005093BC0118CFB7018CE094E00E943008B1
:1016400012CFB70180E092E0F9CFB7018BEF91E0C4
:10165000F5CFA8EEB3E00E94DE126093B90170935B
:10166000BA018093BB019093BC01FDCE1F920F92F3
:101670000FB60F9211248F939F938091E100909168
:10168000E100937F9093E10083FF0FC01092E90087
:1016900091E09093EB001092EC0092E39093ED00B8
:1016A00010920B0498E09093F00082FF22C093E028
:1016B0009093E9009091F200992319F09AE39093A6
:1016C000E8009091CF01992341F09091CF01915082
:1016D0009093CF01911101C05D9890910A049923D4
:1016E00041F090910A04915090930A04911101C025
:1016F000289884FF18C08091E2008E7E81608093DC
:10170000E2008091E1008F7E8093E1008091D00122
:101710008E7E80618093D0019F918F910F900FBE3C
:101720000F901F90189580FFF7CF8091E2008E7E7A
:1017300080618093E2008091E1008E7E8093E100E1
:101740008091D0018E7E8160E5CF1F920F920FB6FF
:101750000F921124CF92DF92EF92FF920F931F937B
:101760002F933F934F935F936F937F938F939F93A9
:10177000AF93BF93EF93FF93CF93DF93CDB7DEB7D4
:101780006C97DEBFCDBF1092E9008091E80083FF27
:1017900025C068E0CE0145960E94B70282EF809393
:1017A000E8008D8987FF39C09091E80090FFFCCF59
:1017B000982F907609F034C19E894F89588D2F89D2
:1017C000F88C911131C0803861F58091D1018093FE
:1017D000F1001092F1008EEF8093E8006C960FB646
:1017E000F894DEBF0FBECDBFDF91CF91FF91EF9197
:1017F000BF91AF919F918F917F916F915F914F9129
:101800003F912F911F910F91FF90EF90DF90CF901C
:101810000F900FBE0F901F9018959EEF9093E800C9
:10182000C7CF1092F100D5CF913059F48111D3CFA9
:101830004130510581F68091D1018D7F8093D10196
:10184000CACF933049F48111C6CF4130510519F602
:101850008091D1018260F2CF953041F48091E8000F
:1018600080FFFCCF20682093E300B5CF963009F0CD
:10187000A9C00B8D1C8D22E01092E9001092CD01C1
:101880001092CC01F2122EC01092CB011092CA011C
:101890000E9486021F8299E09983FA8291E09E83DA
:1018A00090EA98879AEF99872091CC013091CD01E9
:1018B000275F3F4F3C832B838D831092E90010926A
:1018C000CD011092CC011093CB010093CA0149E0E5
:1018D00050E0BE016F5F7F4F80E00E9460020E9477
:1018E000860279CF1093CB010093CA010E94EB01CD
:1018F000DC0112960D911C910115110509F451C1DD
:10190000D801ED91FC910480F581E02DBE016B5E64
:101910007F4FC8010995009709F03EC1F801008585
:101920001185EACFF3E0FF120EC08F89882309F4F6
:1019300040C0823061F440E86DE085E991E00E94AA
:101940002D02811148CF81E28093EB0047CF813097
:1019500029F440E86BE089E891E0F1CF833099F712
:101960000E94EB01DC011296ED90FC908E010F5F5E
:101970001F4F6801E114F10479F0D701ED91FC915A
:101980000680F781E02DB801C7010995080F111DE8
:10199000F701E084F184EECFD8011C92F6010190AA
:1019A0000020E9F73197BF016C197D0940E0C601BD
:1019B000C6CF63E771E0FB01449150E080E80E94EC
:1019C000600209CF973009F4BECF983021F481E04E
:1019D0008093F10000CF993009F0FDCE837009F0BB
:1019E000B2CFE7E4F1E081E031E096E321912223F8
:1019F00071F08093E9003093EB00DF0111972C9197
:101A00002093EC009093ED008F5F873079F78EE79D
:101A10008093EA001092EA008F8980930B04DBCE5A
:101A20008B8D9C8D1092E9001092CD011092CC010B
:101A30009093CB018093CA01898D811192C08E89C8
:101A40009D89913A49F4813209F07DCF47E050E019
:101A500064E071E080E0B3CF913209F074CF83325B
:101A600069F48F89988DB0E0A0E080930001909395
:101A70000101A0930201B0930301ADCE803269F45D
:101A80008091E80082FFFCCF67E084E091E00E9453
:101A9000B7028BEF8093E8009ECE823209F09BCE96
:101AA0008F8980930B01EEEFFFE7859194918B3F37
:101AB0009C4D51F1E0E0F8E0809104019091050126
:101AC000A0910601B0910701803B9440A105B105AA
:101AD000F1F480910B0180FD1AC0EE3F8AE0F80717
:101AE00089F587E797E791838083809160008093F1
:101AF000CE0188E19BE00FB6F894A8958093600032
:101B00000FBE9093600067CEEEEFFAE0D5CF8081F4
:101B100091818737974709F05ECEA8958091600044
:101B20008861809360008091CE0180936000EE3FD9
:101B30002AE0F20789F08091FE0A9091FF0A9183D2
:101B4000808349CE808191818737980751F29093A5
:101B5000FF0A8093FE0AC5CF1092FF0A1092FE0A78
:101B60003ACE0E94EB01DC0112960D911C910115F9
:101B7000110509F4E8CED801ED91FC910190F081B6
:101B8000E02DBE016B5E7F4FC8010995811123CE08
:101B9000F80100851185EBCF181619060CF41BCE41
:101BA000D2CEF1E0FF12BECE67E771E004CF1F9204
:101BB0000F920FB60F9211242F933F938F939F9301
:101BC000AF93BF938091C2019091C301A091C401D2
:101BD000B091C5013091C10123E0230F2D3758F595
:101BE0000196A11DB11D2093C1018093C201909364
:101BF000C301A093C401B093C5018091C601909127
:101C0000C701A091C801B091C9010196A11DB11DE4
:101C10008093C6019093C701A093C801B093C901F6
:101C2000BF91AF919F918F913F912F910F900FBED8
:101C30000F901F90189526E8230F0296A11DB11D45
:101C4000D2CF789484B5826084BD84B5816084BD30
:101C500085B5826085BD85B5816085BD80916E004A
:101C6000816080936E00109281008091810082607B
:101C700080938100809181008160809381008091B8
:101C800080008160809380008091910082608093C9
:101C900091008091910081608093910080919000EB
:101CA0008160809390008091C10084608093C10026
:101CB0008091C10082608093C1008091C1008160E9
:101CC0008093C1008091C30081608093C3008091A4
:101CD000C00082608093C0008091C20081608093C8
:101CE000C20080917A00846080937A0080917A00AB
:101CF000826080937A0080917A00816080937A007C
:101D000080917A00806880937A0010920B04109280
:101D1000D1011092D0018091D70081608093D700CB
:101D200080EA8093D80089B5806189BD89B58260D9
:101D300089BD09B400FEFDCF61E070E080E090E075
:101D40000E940C048091D8008F7C80618093D80021
:101D50008091E000807F8093E0008091E1008E7EA2
:101D60008093E1008DE08093E200559A209A5D987F
:101D700028988FEF9FEF909321048093200486E5AD
:101D800091E00E949A071092070287E390E0C12C2D
:101D9000D12C7601C3940097C1F0FC0123E0F595A6
:101DA000E7952A95E1F7EB52FE4F282F2770B701F0
:101DB000A60104C0440F551F661F771F2A95D2F74E
:101DC0002081242B20830197E6CF6CE271E08DED1A
:101DD00091E00E94060884EF91E09093D4018093F3
:101DE000D3010CB406FC25C061E081E10E94B6037A
:101DF00061E081E10E94450361E080E10E94B60359
:101E000061E08FE00E94B60360E08EE00E94B603BE
:101E100061E080E10E94450360E080E10E944503AB
:101E200060E08FE00E94450380E58CBD8DB5816048
:101E30008DBD8AE08093D20161E00E94B6030E94CA
:101E40007C054FEF60E08FEF0E94B00562E070E02C
:101E500080E090E00E940C040E9483058DE10E94C6
:101E6000770580E00E947705CEB50E947C05CC23E3
:101E700099F370E060E088E00E94EE0570E060E0B9
:101E80008CE00E94EE056FEF7BE08AE00E94EE0599
:101E900060E07CE084E00E94EE056FEF71E186E097
:101EA0000E94EE0566E774E084E10E94120761EB90
:101EB00088E30E94E1056FE370E388E20E94EE058B
:101EC00069EF77EF80E30E94EE0561E080EC0E940D
:101ED000E10542E362EC80E80E94B00562E17CE04B
:101EE00086EC0E94EE0562E184EC0E94E1056CED57
:101EF00075E08AEC0E94EE056091DD0184EE0E949F
:101F0000E1056091DE0185EE0E94E1056091DF014F
:101F100082EE0E94E1056091E00183EE0E94E105FE
:101F20006091E10180EE0E94E1056091E20181EEA5
:101F30000E94E10560E071E080E10E9412078FE1FC
:101F40000E94C50540EC6BE180E80E94B00544E0CA
:101F50006FE180E80E94B00582E70E94FB058630B1
:101F600008F08F5F811104C082E691E00E949A0719
:101F700081E0809307028091E201282F30E094E015
:101F8000359527959A95E1F7ECE0F1E00190002076
:101F9000E9F7EF50F14090E32A300CF097E3E45F6B
:101FA000FE4F920F9083ECE0F1E001900020E9F702
:101FB000EE50F1408F7090E38A300CF097E3890F78
:101FC000E45FFE4F80831092DC010E94C304EB01AA
:101FD0001091DC01133041F00E94C3046C1B7D0B97
:101FE00060367A4E08F40EC1E0E1F4E0CCE0D4E0D3
:101FF000A3EEB1E024E134E0919189918095892BA1
:102000008D932E173F07C1F710920502109204021C
:10201000133021F087E891E00E949A0760E174E0B4
:1020200083E991E00E94A80760E072E089E991E00D
:102030000E94A8076BEF71E08FE991E00E94A8076A
:10204000F0E0CF2EF0E0DF2EA9E16A2EBCE29B2E5D
:10205000C2E15C2E12E0D4E08D2E05E0F02E40E6C9
:10206000E42E58E7352E66E0B62E01E078E1772EB3
:10207000E3E0AE2E0E942906EC018091070288233E
:1020800019F0CE010E94DB09209709F0C7C08091AA
:102090000602857099F08091040290910502892BC7
:1020A00069F40E94130682FF09C080E092E00E945A
:1020B00038088091060288608093060280910402AD
:1020C00090910502019690930502809304028091FD
:1020D000FF01813009F067C08091060281FF63C073
:1020E0001093FF01809133018F5F80933301C82FDC
:1020F000CF7185EF91E00E94900165EF71E0882338
:1021000009F489C087EE91E00E94A208D8E0D0933C
:1021100016021092170249E050E063EA71E088E18C
:1021200092E00E94AD1290921B02B09221020E9496
:10213000680510922E0210922F028BE080932C02E1
:10214000C0932D02E0E3F2E0DF011D92DA95E9F79A
:1021500080913201809332028D5F80933201E09250
:10216000380210933902A0923A0210923B02109268
:102170003C0210923D0210923E0210923F021093D8
:102180004002809241021093420286E28093430211
:1021900022E040E250E06AE182E30E9415058AE312
:1021A00090E00E9494068BEF91E00E9490018823BA
:1021B00071F08091FA0181110AC08091F9018111B9
:1021C00006C08BEF91E00E9438080093F90185EF7B
:1021D00091E00E949001882371F08091F4018111B7
:1021E0000AC08091F301811106C085EF91E00E9441
:1021F00038080093F301C114D10409F43BCF0E94C5
:1022000000002DCF0E94130682FFE2CE0E94290615
:102210000E94DB09DDCE8DEE91E076CFC932D1058B
:1022200050F380911602883031F780911702863082
:1022300009F036C144E050E060E174E080E392E0F0
:102240000E94F812892BB9F680911F02813021F586
:1022500080E192E00E94250810921E0210931F0256
:1022600060E272E08AE292E00E9406086DED71E0A1
:1022700080E292E00E94060866E272E080E392E06B
:102280000E94300860E174E086E292E00E9430082B
:102290008AE290E00E9494068091060283FF0DC0BE
:1022A000C0911F02C23049F46DEE71E080E092E00F
:1022B0000E940E088111C09306028091FA018111DB
:1022C00010C08091F901882361F067EE71E08BEF17
:1022D00091E00E940E08882321F00093FA011092E9
:1022E000F9018091F401811186CF8091F301882357
:1022F00009F481CF67EE71E085EF91E00E940E084E
:10230000882309F478CF0093F4011092F30173CF7E
:10231000C633D10508F46FCF863009F06CCF8091B9
:102320002E028B3009F04AC044E050E065EF71E0C6
:1023300084E292E00E94F812892B09F05CCFC091F0
:102340003902C2FF03C0F092FF0155CF0E94CF04B3
:102350002091FF012230F1F42C2F2071C271C23183
:1023600071F460E090E080E00E947E087092390293
:10237000A092FF0190E080E00E94F4063CCF009321
:10238000FF010196222311F090E080E064E00E94BA
:102390007E0831CF253009F42ECFC0FF0AC023308C
:1023A00009F429CF69E001960E947E08B092FF01EE
:1023B00022CF60E0009709F41ECFE9CF81111BCF37
:1023C00080912F02803509F016CF4090390241FEEE
:1023D00032C010921A0290921B020E946C08509216
:1023E000390260E081E090E00E94EA04109230023D
:1023F00010923102809132018093320210923302A6
:102400008D5F809332011093400280924102F092DE
:10241000420210924302E0923802F0923A02309265
:102420003B0222E040E250E06AE182E30E941505AF
:102430008AE390E07AC044FEDECE0E94CF049093FF
:10244000090280930802892B29F18091380290E0DB
:1024500024E0959587952A95E1F7880F991F880FB5
:10246000991F8296C817D90708F4C5CE4EE151E0EE
:102470006CEA71E080E492E00E94AD1260E080912D
:102480000802909109020E947E08609239028DE153
:1024900091E072CF40FEAFCE60E090E080E077CF79
:1024A000C932D10509F4A7CE8111A5CE80911802B9
:1024B000853409F0A0CE44E050E060E174E088E2A9
:1024C00092E00E94F812892BA9F044E050E063EEFC
:1024D00071E088E292E00E94F812892B59F044E002
:1024E00050E06DE471E088E292E00E94F812892BDE
:1024F00009F081CE80912102813009F009CF8091CD
:102500002C02883009F077CE0E946C0810922C02C1
:1025100080912E02883F28F090912F029F5F909328
:102520002F02885F80932E02CE010E94940663CE14
:10253000E4E1F4E01382128288EE93E0A0E0B0E0E0
:1025400084839583A683B78388E391E09183808316
:102550008FEF9FEF958784870895FB01DC0102C010
:1025600005900D9241505040D8F70895A1E21A2EDF
:10257000AA1BBB1BFD010DC0AA1FBB1FEE1FFF1F27
:10258000A217B307E407F50720F0A21BB30BE40B77
:10259000F50B661F771F881F991F1A9469F76095BE
:1025A0007095809590959B01AC01BD01CF01089578
:1025B000EE0FFF1F0590F491E02D09940E94E9129F
:1025C000A59F900DB49F900DA49F800D911D112487
:1025D0000895A29FB001B39FC001A39F700D811DFC
:1025E0001124911DB29F700D811D1124911D08951C
:1025F000FB01DC0104C08D910190801921F4415050
:0E2600005040C8F7881B990B0895F894FFCF3F
:10260E00FFFFFFFF00E10000000000004172647553
:10261E00696E6F2D454E4332386A36302D3030009C
:10262E000000000000000000000000007469692D29
:10263E0030310A0100000000C4023E04E502DA0255
:10264E002B03E902070300C18081000000FFFFFF9A
:10265E00FFFFFF0D0A000A5B6261636B536F6F6EC3
:10266E005D004661696C656420746F20616363650B
:10267E0073732045746865726E657420636F6E7433
:10268E00726F6C6C65720044484350206661696CD1
:10269E0065640049503A20200047573A20200044F4
:0626AE004E533A2000002B
:00000001FF
